{
  "contractName": "arrays",
  "abi": [
    {
      "inputs": [
        {
          "internalType": "uint256",
          "name": "",
          "type": "uint256"
        }
      ],
      "name": "dynamicSizeArray",
      "outputs": [
        {
          "internalType": "uint8",
          "name": "",
          "type": "uint8"
        }
      ],
      "stateMutability": "view",
      "type": "function"
    },
    {
      "inputs": [
        {
          "internalType": "uint256",
          "name": "",
          "type": "uint256"
        }
      ],
      "name": "fixedSizeArray",
      "outputs": [
        {
          "internalType": "uint8",
          "name": "",
          "type": "uint8"
        }
      ],
      "stateMutability": "view",
      "type": "function"
    },
    {
      "inputs": [
        {
          "internalType": "uint8",
          "name": "position",
          "type": "uint8"
        },
        {
          "internalType": "uint8",
          "name": "value",
          "type": "uint8"
        }
      ],
      "name": "insertFixedSize",
      "outputs": [],
      "stateMutability": "nonpayable",
      "type": "function"
    },
    {
      "inputs": [],
      "name": "lengthFixedSize",
      "outputs": [
        {
          "internalType": "uint256",
          "name": "",
          "type": "uint256"
        }
      ],
      "stateMutability": "view",
      "type": "function"
    },
    {
      "inputs": [
        {
          "internalType": "uint8",
          "name": "value",
          "type": "uint8"
        }
      ],
      "name": "insertDynamicSize",
      "outputs": [],
      "stateMutability": "nonpayable",
      "type": "function"
    },
    {
      "inputs": [],
      "name": "removeDynamicSize",
      "outputs": [],
      "stateMutability": "nonpayable",
      "type": "function"
    },
    {
      "inputs": [],
      "name": "lengthDynamicSize",
      "outputs": [
        {
          "internalType": "uint256",
          "name": "",
          "type": "uint256"
        }
      ],
      "stateMutability": "view",
      "type": "function"
    }
  ],
  "bytecode": "0x608060405234801561001057600080fd5b5061048c806100206000396000f3fe608060405234801561001057600080fd5b506004361061007d5760003560e01c8063b084af5d1161005b578063b084af5d146100ee578063b98d8b6f1461010a578063bf50092c14610114578063d6029359146101305761007d565b806312399d881461008257806334736b65146100b257806382f17561146100d0575b600080fd5b61009c600480360381019061009791906102d1565b610160565b6040516100a9919061031a565b60405180910390f35b6100ba61018a565b6040516100c79190610344565b60405180910390f35b6100d8610193565b6040516100e59190610344565b60405180910390f35b6101086004803603810190610103919061038b565b6101a0565b005b6101126101dc565b005b61012e600480360381019061012991906103cb565b61021a565b005b61014a600480360381019061014591906102d1565b610262565b604051610157919061031a565b60405180910390f35b6000816004811061017057600080fd5b60209182820401919006915054906101000a900460ff1681565b60006004905090565b6000600180549050905090565b8060008360ff16600481106101b8576101b76103f8565b5b602091828204019190066101000a81548160ff021916908360ff1602179055505050565b60018054806101ee576101ed610427565b5b60019003818190600052602060002090602091828204019190066101000a81549060ff02191690559055565b60018190806001815401808255809150506001900390600052602060002090602091828204019190069091909190916101000a81548160ff021916908360ff16021790555050565b6001818154811061027257600080fd5b9060005260206000209060209182820401919006915054906101000a900460ff1681565b600080fd5b6000819050919050565b6102ae8161029b565b81146102b957600080fd5b50565b6000813590506102cb816102a5565b92915050565b6000602082840312156102e7576102e6610296565b5b60006102f5848285016102bc565b91505092915050565b600060ff82169050919050565b610314816102fe565b82525050565b600060208201905061032f600083018461030b565b92915050565b61033e8161029b565b82525050565b60006020820190506103596000830184610335565b92915050565b610368816102fe565b811461037357600080fd5b50565b6000813590506103858161035f565b92915050565b600080604083850312156103a2576103a1610296565b5b60006103b085828601610376565b92505060206103c185828601610376565b9150509250929050565b6000602082840312156103e1576103e0610296565b5b60006103ef84828501610376565b91505092915050565b7f4e487b7100000000000000000000000000000000000000000000000000000000600052603260045260246000fd5b7f4e487b7100000000000000000000000000000000000000000000000000000000600052603160045260246000fdfea2646970667358221220cf22f7168efb8ca57b528c00e8e840ec03e834ecd5f853f595293562df5f982564736f6c634300080e0033",
  "immutableReferences": {},
  "source": "// SPDX-License-Identifier: MIT\npragma solidity >=0.4.22 <0.9.0;\n\ncontract arrays {\n    uint8[4] public fixedSizeArray;\n    uint8[] public dynamicSizeArray;\n\n    function insertFixedSize(uint8 position, uint8 value) public {\n        fixedSizeArray[position] = value;\n    }\n\n    function lengthFixedSize() public view returns (uint256) {\n        return fixedSizeArray.length;\n    }\n\n    function insertDynamicSize(uint8 value) public {\n        dynamicSizeArray.push(value);\n    }\n\n    function removeDynamicSize() public {\n        dynamicSizeArray.pop();\n    }\n\n    function lengthDynamicSize() public view returns (uint256) {\n        return dynamicSizeArray.length;\n    }\n}\n",
  "sourcePath": "/media/hardik/Stuff/PlayGround/Solidity_PlayGround/contracts/arrays.sol",
  "compiler": {
    "name": "solc",
    "version": "0.8.14+commit.80d49f37.Emscripten.clang"
  },
  "schemaVersion": "3.4.7",
  "updatedAt": "2022-06-02T00:50:19.722Z",
  "devdoc": {
    "kind": "dev",
    "methods": {},
    "version": 1
  },
  "userdoc": {
    "kind": "user",
    "methods": {},
    "version": 1
  }
}