{
  "contractName": "arrays",
  "abi": [
    {
      "inputs": [
        {
          "internalType": "uint256",
          "name": "",
          "type": "uint256"
        }
      ],
      "name": "fixedSizeArray",
      "outputs": [
        {
          "internalType": "uint8",
          "name": "",
          "type": "uint8"
        }
      ],
      "stateMutability": "view",
      "type": "function"
    },
    {
      "inputs": [
        {
          "internalType": "uint8",
          "name": "position",
          "type": "uint8"
        },
        {
          "internalType": "uint8",
          "name": "value",
          "type": "uint8"
        }
      ],
      "name": "insert",
      "outputs": [],
      "stateMutability": "nonpayable",
      "type": "function"
    },
    {
      "inputs": [],
      "name": "length",
      "outputs": [
        {
          "internalType": "uint256",
          "name": "",
          "type": "uint256"
        }
      ],
      "stateMutability": "view",
      "type": "function"
    }
  ],
  "bytecode": "0x608060405234801561001057600080fd5b506102b9806100206000396000f3fe608060405234801561001057600080fd5b50600436106100415760003560e01c806312399d88146100465780631f7b6d3214610076578063bba8a06514610094575b600080fd5b610060600480360381019061005b919061015a565b6100b0565b60405161006d91906101a3565b60405180910390f35b61007e6100da565b60405161008b91906101cd565b60405180910390f35b6100ae60048036038101906100a99190610214565b6100e3565b005b600081600481106100c057600080fd5b60209182820401919006915054906101000a900460ff1681565b60006004905090565b8060008360ff16600481106100fb576100fa610254565b5b602091828204019190066101000a81548160ff021916908360ff1602179055505050565b600080fd5b6000819050919050565b61013781610124565b811461014257600080fd5b50565b6000813590506101548161012e565b92915050565b6000602082840312156101705761016f61011f565b5b600061017e84828501610145565b91505092915050565b600060ff82169050919050565b61019d81610187565b82525050565b60006020820190506101b86000830184610194565b92915050565b6101c781610124565b82525050565b60006020820190506101e260008301846101be565b92915050565b6101f181610187565b81146101fc57600080fd5b50565b60008135905061020e816101e8565b92915050565b6000806040838503121561022b5761022a61011f565b5b6000610239858286016101ff565b925050602061024a858286016101ff565b9150509250929050565b7f4e487b7100000000000000000000000000000000000000000000000000000000600052603260045260246000fdfea264697066735822122090bc804c638ebe470f78995526244fc681015d5f5c22828f26591ee5dac54cbb64736f6c634300080e0033",
  "immutableReferences": {},
  "source": "// SPDX-License-Identifier: MIT\npragma solidity >=0.4.22 <0.9.0;\n\ncontract arrays {\n    uint8[4] public fixedSizeArray;\n\n    function insert(uint8 position, uint8 value) public {\n        fixedSizeArray[position] = value;\n    }\n\n    function length() public view returns (uint256) {\n        return fixedSizeArray.length;\n    }\n}\n",
  "sourcePath": "/media/hardik/Stuff/PlayGround/Solidity_PlayGround/contracts/arrays.sol",
  "compiler": {
    "name": "solc",
    "version": "0.8.14+commit.80d49f37.Emscripten.clang"
  },
  "schemaVersion": "3.4.7",
  "updatedAt": "2022-06-02T00:38:38.283Z",
  "devdoc": {
    "kind": "dev",
    "methods": {},
    "version": 1
  },
  "userdoc": {
    "kind": "user",
    "methods": {},
    "version": 1
  }
}