{
  "contractName": "boolean",
  "abi": [
    {
      "inputs": [
        {
          "internalType": "int256",
          "name": "number",
          "type": "int256"
        }
      ],
      "name": "check",
      "outputs": [
        {
          "internalType": "bool",
          "name": "",
          "type": "bool"
        }
      ],
      "stateMutability": "pure",
      "type": "function"
    }
  ],
  "bytecode": "0x608060405234801561001057600080fd5b5061015b806100206000396000f3fe608060405234801561001057600080fd5b506004361061002b5760003560e01c80639943d66914610030575b600080fd5b61004a600480360381019061004591906100c2565b610060565b604051610057919061010a565b60405180910390f35b600080600090506000831315610079576001905061007e565b600090505b80915050919050565b600080fd5b6000819050919050565b61009f8161008c565b81146100aa57600080fd5b50565b6000813590506100bc81610096565b92915050565b6000602082840312156100d8576100d7610087565b5b60006100e6848285016100ad565b91505092915050565b60008115159050919050565b610104816100ef565b82525050565b600060208201905061011f60008301846100fb565b9291505056fea2646970667358221220093f784f994294cd799b5ce874c2434c80bf17765e0ffaf71ff0d8324a6c2da464736f6c634300080e0033",
  "immutableReferences": {},
  "source": "// SPDX-License-Identifier: MIT\npragma solidity >=0.4.22 <0.9.0;\n\ncontract boolean {\n    function check(int256 number) public pure returns (bool) {\n        bool result = false;\n        if (number > 0) {\n            result = true;\n        } else {\n            result = false;\n        }\n        //default will be false\n        return result;\n    }\n}\n",
  "sourcePath": "/media/hardik/Stuff/PlayGround/Solidity_PlayGround/contracts/boolean.sol",
  "compiler": {
    "name": "solc",
    "version": "0.8.14+commit.80d49f37.Emscripten.clang"
  },
  "schemaVersion": "3.4.7",
  "updatedAt": "2022-06-02T00:38:38.319Z",
  "devdoc": {
    "kind": "dev",
    "methods": {},
    "version": 1
  },
  "userdoc": {
    "kind": "user",
    "methods": {},
    "version": 1
  }
}