{
  "contractName": "byteArray",
  "abi": [
    {
      "inputs": [],
      "name": "b",
      "outputs": [
        {
          "internalType": "bytes",
          "name": "",
          "type": "bytes"
        }
      ],
      "stateMutability": "view",
      "type": "function"
    },
    {
      "inputs": [],
      "name": "b1",
      "outputs": [
        {
          "internalType": "bytes1",
          "name": "",
          "type": "bytes1"
        }
      ],
      "stateMutability": "view",
      "type": "function"
    },
    {
      "inputs": [],
      "name": "b2",
      "outputs": [
        {
          "internalType": "bytes2",
          "name": "",
          "type": "bytes2"
        }
      ],
      "stateMutability": "view",
      "type": "function"
    },
    {
      "inputs": [],
      "name": "b3",
      "outputs": [
        {
          "internalType": "bytes3",
          "name": "",
          "type": "bytes3"
        }
      ],
      "stateMutability": "view",
      "type": "function"
    },
    {
      "inputs": [],
      "name": "setterFixedByte",
      "outputs": [],
      "stateMutability": "nonpayable",
      "type": "function"
    },
    {
      "inputs": [],
      "name": "pushDynamicByte",
      "outputs": [],
      "stateMutability": "nonpayable",
      "type": "function"
    },
    {
      "inputs": [
        {
          "internalType": "uint8",
          "name": "position",
          "type": "uint8"
        }
      ],
      "name": "getDynamicByte",
      "outputs": [
        {
          "internalType": "bytes1",
          "name": "",
          "type": "bytes1"
        }
      ],
      "stateMutability": "view",
      "type": "function"
    },
    {
      "inputs": [],
      "name": "getLength",
      "outputs": [
        {
          "internalType": "uint256",
          "name": "",
          "type": "uint256"
        }
      ],
      "stateMutability": "view",
      "type": "function"
    }
  ],
  "bytecode": "0x608060405234801561001057600080fd5b50610745806100206000396000f3fe608060405234801561001057600080fd5b50600436106100885760003560e01c8063be1c766b1161005b578063be1c766b14610103578063e9b6190914610121578063ee4950021461013f578063fddd89d91461015d57610088565b80630add6ef21461008d5780634df7e3d0146100ab57806359edc1e7146100c95780636bb8e35d146100d3575b600080fd5b610095610167565b6040516100a2919061045f565b60405180910390f35b6100b361017a565b6040516100c09190610513565b60405180910390f35b6100d1610208565b005b6100ed60048036038101906100e89190610573565b6102c7565b6040516100fa91906105db565b60405180910390f35b61010b610335565b604051610118919061060f565b60405180910390f35b61012961034b565b6040516101369190610665565b60405180910390f35b61014761035e565b60405161015491906105db565b60405180910390f35b61016561036f565b005b600060019054906101000a900460f01b81565b60018054610187906106af565b80601f01602080910402602001604051908101604052809291908181526020018280546101b3906106af565b80156102005780601f106101d557610100808354040283529160200191610200565b820191906000526020600020905b8154815290600101906020018083116101e357829003601f168201915b505050505081565b600180805480610217906106af565b80601f81036102365783600052602060002060ff1984168155603f9350505b506002820183556001810192505050600190038154600116156102685790600052602060002090602091828204019190065b7f450000000000000000000000000000000000000000000000000000000000000090919091601f036101000a81548160ff021916907f010000000000000000000000000000000000000000000000000000000000000084040217905550565b600060018260ff1681546102da906106af565b81106102e9576102e86106e0565b5b8154600116156103085790600052602060002090602091828204019190065b9054901a7f0100000000000000000000000000000000000000000000000000000000000000029050919050565b600060018054610344906106af565b9050905090565b600060039054906101000a900460e81b81565b60008054906101000a900460f81b81565b7f45000000000000000000000000000000000000000000000000000000000000006000806101000a81548160ff021916908360f81c02179055507f4554000000000000000000000000000000000000000000000000000000000000600060016101000a81548161ffff021916908360f01c02179055507f4554480000000000000000000000000000000000000000000000000000000000600060036101000a81548162ffffff021916908360e81c0217905550565b60007fffff00000000000000000000000000000000000000000000000000000000000082169050919050565b61045981610424565b82525050565b60006020820190506104746000830184610450565b92915050565b600081519050919050565b600082825260208201905092915050565b60005b838110156104b4578082015181840152602081019050610499565b838111156104c3576000848401525b50505050565b6000601f19601f8301169050919050565b60006104e58261047a565b6104ef8185610485565b93506104ff818560208601610496565b610508816104c9565b840191505092915050565b6000602082019050818103600083015261052d81846104da565b905092915050565b600080fd5b600060ff82169050919050565b6105508161053a565b811461055b57600080fd5b50565b60008135905061056d81610547565b92915050565b60006020828403121561058957610588610535565b5b60006105978482850161055e565b91505092915050565b60007fff0000000000000000000000000000000000000000000000000000000000000082169050919050565b6105d5816105a0565b82525050565b60006020820190506105f060008301846105cc565b92915050565b6000819050919050565b610609816105f6565b82525050565b60006020820190506106246000830184610600565b92915050565b60007fffffff000000000000000000000000000000000000000000000000000000000082169050919050565b61065f8161062a565b82525050565b600060208201905061067a6000830184610656565b92915050565b7f4e487b7100000000000000000000000000000000000000000000000000000000600052602260045260246000fd5b600060028204905060018216806106c757607f821691505b6020821081036106da576106d9610680565b5b50919050565b7f4e487b7100000000000000000000000000000000000000000000000000000000600052603260045260246000fdfea26469706673582212202482150b23b7aa856e12df267db5885d4410ec9e2808451478331dc2bfadb6ec64736f6c634300080e0033",
  "immutableReferences": {},
  "source": "// SPDX-License-Identifier: MIT\npragma solidity >=0.4.22 <0.9.0;\n\ncontract byteArray {\n    bytes1 public b1;\n    bytes2 public b2;\n    bytes3 public b3;\n    bytes public b;\n\n    function setterFixedByte() public {\n        b1 = \"E\";\n        b2 = \"ET\";\n        b3 = \"ETH\";\n    }\n\n    function pushDynamicByte() public {\n        b.push(\"E\");\n    }\n\n    function getDynamicByte(uint8 position) public view returns (bytes1) {\n        return b[position];\n    }\n\n    function getLength() public view returns (uint256) {\n        return b.length;\n    }\n}\n",
  "sourcePath": "/media/hardik/Stuff/PlayGround/Solidity_PlayGround/contracts/byteArray.sol",
  "compiler": {
    "name": "solc",
    "version": "0.8.14+commit.80d49f37.Emscripten.clang"
  },
  "schemaVersion": "3.4.7",
  "updatedAt": "2022-06-02T03:22:02.563Z",
  "devdoc": {
    "kind": "dev",
    "methods": {},
    "version": 1
  },
  "userdoc": {
    "kind": "user",
    "methods": {},
    "version": 1
  }
}