{
  "contractName": "condition",
  "abi": [
    {
      "inputs": [
        {
          "internalType": "int256",
          "name": "number",
          "type": "int256"
        }
      ],
      "name": "conditionCheck",
      "outputs": [
        {
          "internalType": "string",
          "name": "",
          "type": "string"
        }
      ],
      "stateMutability": "pure",
      "type": "function"
    }
  ],
  "bytecode": "0x608060405234801561001057600080fd5b5061028b806100206000396000f3fe608060405234801561001057600080fd5b506004361061002b5760003560e01c8063be160bce14610030575b600080fd5b61004a6004803603810190610045919061016d565b610060565b6040516100579190610233565b60405180910390f35b60608060008313156100a9576040518060400160405280601881526020017f4e756d6265722069732067726561746572207468616e203000000000000000008152509050610129565b60008312156100ef576040518060400160405280601581526020017f4e756d626572206973206c657373207468616e203000000000000000000000008152509050610128565b6040518060400160405280600b81526020017f4e756d626572206973203000000000000000000000000000000000000000000081525090505b5b80915050919050565b600080fd5b6000819050919050565b61014a81610137565b811461015557600080fd5b50565b60008135905061016781610141565b92915050565b60006020828403121561018357610182610132565b5b600061019184828501610158565b91505092915050565b600081519050919050565b600082825260208201905092915050565b60005b838110156101d45780820151818401526020810190506101b9565b838111156101e3576000848401525b50505050565b6000601f19601f8301169050919050565b60006102058261019a565b61020f81856101a5565b935061021f8185602086016101b6565b610228816101e9565b840191505092915050565b6000602082019050818103600083015261024d81846101fa565b90509291505056fea2646970667358221220bba29a0700ca373181843e83118d42711e8275a1b971ba68c42e350c9ec0feef64736f6c634300080e0033",
  "immutableReferences": {},
  "source": "// SPDX-License-Identifier: MIT\npragma solidity >=0.4.22 <0.9.0;\n\ncontract condition {\n    function conditionCheck(int256 number) public pure returns (string memory) {\n        string memory result;\n        if (number > 0) {\n            result = \"Number is greater than 0\";\n        } else if (number < 0) {\n            result = \"Number is less than 0\";\n        } else {\n            result = \"Number is 0\";\n        }\n        return result;\n    }\n}\n",
  "sourcePath": "/media/hardik/Stuff/PlayGround/Solidity_PlayGround/contracts/condition.sol",
  "compiler": {
    "name": "solc",
    "version": "0.8.14+commit.80d49f37.Emscripten.clang"
  },
  "schemaVersion": "3.4.7",
  "updatedAt": "2022-06-01T03:45:36.222Z",
  "devdoc": {
    "kind": "dev",
    "methods": {},
    "version": 1
  },
  "userdoc": {
    "kind": "user",
    "methods": {},
    "version": 1
  }
}