{
  "contractName": "enumDemo",
  "abi": [
    {
      "inputs": [],
      "name": "u1",
      "outputs": [
        {
          "internalType": "enum enumDemo.user",
          "name": "",
          "type": "uint8"
        }
      ],
      "stateMutability": "view",
      "type": "function"
    },
    {
      "inputs": [],
      "name": "allow",
      "outputs": [],
      "stateMutability": "nonpayable",
      "type": "function"
    },
    {
      "inputs": [],
      "name": "ban",
      "outputs": [],
      "stateMutability": "nonpayable",
      "type": "function"
    }
  ],
  "bytecode": "0x608060405260016000806101000a81548160ff0219169083600281111561002957610028610040565b5b021790555034801561003a57600080fd5b5061006f565b7f4e487b7100000000000000000000000000000000000000000000000000000000600052602160045260246000fd5b6101a98061007e6000396000f3fe608060405234801561001057600080fd5b50600436106100415760003560e01c80631aa3561014610046578063b1b3d3f614610064578063d5d9ce911461006e575b600080fd5b61004e610078565b60405161005b9190610158565b60405180910390f35b61006c610089565b005b6100766100b5565b005b60008054906101000a900460ff1681565b60008060006101000a81548160ff021916908360028111156100ae576100ad6100e1565b5b0217905550565b60016000806101000a81548160ff021916908360028111156100da576100d96100e1565b5b0217905550565b7f4e487b7100000000000000000000000000000000000000000000000000000000600052602160045260246000fd5b60038110610121576101206100e1565b5b50565b600081905061013282610110565b919050565b600061014282610124565b9050919050565b61015281610137565b82525050565b600060208201905061016d6000830184610149565b9291505056fea264697066735822122008f68b7757c7efe34a334b1436b2e4ba3ba78f9119b8519cf5e0e19e53a7fe7364736f6c634300080e0033",
  "immutableReferences": {},
  "source": "// SPDX-License-Identifier: MIT\npragma solidity >=0.4.22 <0.9.0;\n\ncontract enumDemo {\n    enum user {\n        allow,\n        ban,\n        wait\n    }\n    user public u1 = user.ban;\n\n    function allow() public {\n        u1 = user.allow;\n    }\n\n    function ban() public {\n        u1 = user.ban;\n    }\n}\n",
  "sourcePath": "/media/hardik/Stuff/PlayGround/Solidity_PlayGround/contracts/enumDemo.sol",
  "compiler": {
    "name": "solc",
    "version": "0.8.14+commit.80d49f37.Emscripten.clang"
  },
  "schemaVersion": "3.4.7",
  "updatedAt": "2022-06-02T03:33:13.778Z",
  "devdoc": {
    "kind": "dev",
    "methods": {},
    "version": 1
  },
  "userdoc": {
    "kind": "user",
    "methods": {},
    "version": 1
  }
}