{
  "contractName": "IncDecGet",
  "abi": [
    {
      "inputs": [],
      "stateMutability": "nonpayable",
      "type": "constructor"
    },
    {
      "inputs": [],
      "name": "increment",
      "outputs": [],
      "stateMutability": "nonpayable",
      "type": "function"
    },
    {
      "inputs": [],
      "name": "decrement",
      "outputs": [],
      "stateMutability": "nonpayable",
      "type": "function"
    },
    {
      "inputs": [],
      "name": "get",
      "outputs": [
        {
          "internalType": "uint256",
          "name": "",
          "type": "uint256"
        }
      ],
      "stateMutability": "view",
      "type": "function"
    }
  ],
  "bytecode": "0x608060405234801561001057600080fd5b50600560008190555061019e806100286000396000f3fe608060405234801561001057600080fd5b50600436106100415760003560e01c80632baeceb7146100465780636d4ce63c14610050578063d09de08a1461006e575b600080fd5b61004e610078565b005b61005861008f565b60405161006591906100c8565b60405180910390f35b610076610098565b005b60016000546100879190610112565b600081905550565b60008054905090565b60016000546100a79190610112565b600081905550565b6000819050919050565b6100c2816100af565b82525050565b60006020820190506100dd60008301846100b9565b92915050565b7f4e487b7100000000000000000000000000000000000000000000000000000000600052601160045260246000fd5b600061011d826100af565b9150610128836100af565b9250827fffffffffffffffffffffffffffffffffffffffffffffffffffffffffffffffff0382111561015d5761015c6100e3565b5b82820190509291505056fea26469706673582212200728d06038737d7362f02bd3ea87656acc1e258fd4bce48714759ba07aae01be64736f6c634300080e0033",
  "immutableReferences": {},
  "source": "// SPDX-License-Identifier: MIT\npragma solidity >=0.4.22 <0.9.0;\n\ncontract IncDecGet {\n    uint256 number;\n\n    constructor() {\n        number = 5;\n    }\n\n    function increment() public {\n        number = number + 1;\n    }\n\n    function decrement() public {\n        number = number + 1;\n    }\n\n    function get() public view returns (uint256) {\n        return number;\n    }\n}\n",
  "sourcePath": "/media/hardik/Stuff/PlayGround/Solidity_PlayGround/contracts/IncDecGet.sol",
  "compiler": {
    "name": "solc",
    "version": "0.8.14+commit.80d49f37.Emscripten.clang"
  },
  "schemaVersion": "3.4.7",
  "updatedAt": "2022-06-01T02:46:33.891Z",
  "devdoc": {
    "kind": "dev",
    "methods": {},
    "version": 1
  },
  "userdoc": {
    "kind": "user",
    "methods": {},
    "version": 1
  }
}