{
  "contractName": "mappingDemo",
  "abi": [
    {
      "inputs": [
        {
          "internalType": "uint8",
          "name": "",
          "type": "uint8"
        }
      ],
      "name": "student",
      "outputs": [
        {
          "internalType": "string",
          "name": "",
          "type": "string"
        }
      ],
      "stateMutability": "view",
      "type": "function"
    },
    {
      "inputs": [
        {
          "internalType": "uint256",
          "name": "",
          "type": "uint256"
        }
      ],
      "name": "studentDetail",
      "outputs": [
        {
          "internalType": "string",
          "name": "name",
          "type": "string"
        },
        {
          "internalType": "uint8",
          "name": "age",
          "type": "uint8"
        }
      ],
      "stateMutability": "view",
      "type": "function"
    },
    {
      "inputs": [
        {
          "internalType": "uint8",
          "name": "_rollNo",
          "type": "uint8"
        },
        {
          "internalType": "string",
          "name": "_name",
          "type": "string"
        }
      ],
      "name": "input",
      "outputs": [],
      "stateMutability": "nonpayable",
      "type": "function"
    },
    {
      "inputs": [
        {
          "internalType": "uint8",
          "name": "_rollNo",
          "type": "uint8"
        },
        {
          "internalType": "string",
          "name": "_name",
          "type": "string"
        },
        {
          "internalType": "uint8",
          "name": "_age",
          "type": "uint8"
        }
      ],
      "name": "inputStruct",
      "outputs": [],
      "stateMutability": "nonpayable",
      "type": "function"
    }
  ],
  "bytecode": "0x608060405234801561001057600080fd5b506107f8806100206000396000f3fe608060405234801561001057600080fd5b506004361061004c5760003560e01c8063a44ca15914610051578063c6be2f0014610082578063ea840f171461009e578063f84ea16c146100ba575b600080fd5b61006b600480360381019061006691906103d5565b6100ea565b6040516100799291906104b7565b60405180910390f35b61009c60048036038101906100979190610648565b6101a3565b005b6100b860048036038101906100b391906106b7565b610217565b005b6100d460048036038101906100cf9190610713565b610248565b6040516100e19190610740565b60405180910390f35b600160205280600052604060002060009150905080600001805461010d90610791565b80601f016020809104026020016040519081016040528092919081815260200182805461013990610791565b80156101865780601f1061015b57610100808354040283529160200191610186565b820191906000526020600020905b81548152906001019060200180831161016957829003601f168201915b5050505050908060010160009054906101000a900460ff16905082565b60405180604001604052808381526020018260ff16815250600160008560ff16815260200190815260200160002060008201518160000190805190602001906101ed9291906102e8565b5060208201518160010160006101000a81548160ff021916908360ff160217905550905050505050565b806000808460ff1660ff16815260200190815260200160002090805190602001906102439291906102e8565b505050565b6000602052806000526040600020600091509050805461026790610791565b80601f016020809104026020016040519081016040528092919081815260200182805461029390610791565b80156102e05780601f106102b5576101008083540402835291602001916102e0565b820191906000526020600020905b8154815290600101906020018083116102c357829003601f168201915b505050505081565b8280546102f490610791565b90600052602060002090601f016020900481019282610316576000855561035d565b82601f1061032f57805160ff191683800117855561035d565b8280016001018555821561035d579182015b8281111561035c578251825591602001919060010190610341565b5b50905061036a919061036e565b5090565b5b8082111561038757600081600090555060010161036f565b5090565b6000604051905090565b600080fd5b600080fd5b6000819050919050565b6103b28161039f565b81146103bd57600080fd5b50565b6000813590506103cf816103a9565b92915050565b6000602082840312156103eb576103ea610395565b5b60006103f9848285016103c0565b91505092915050565b600081519050919050565b600082825260208201905092915050565b60005b8381101561043c578082015181840152602081019050610421565b8381111561044b576000848401525b50505050565b6000601f19601f8301169050919050565b600061046d82610402565b610477818561040d565b935061048781856020860161041e565b61049081610451565b840191505092915050565b600060ff82169050919050565b6104b18161049b565b82525050565b600060408201905081810360008301526104d18185610462565b90506104e060208301846104a8565b9392505050565b6104f08161049b565b81146104fb57600080fd5b50565b60008135905061050d816104e7565b92915050565b600080fd5b600080fd5b7f4e487b7100000000000000000000000000000000000000000000000000000000600052604160045260246000fd5b61055582610451565b810181811067ffffffffffffffff821117156105745761057361051d565b5b80604052505050565b600061058761038b565b9050610593828261054c565b919050565b600067ffffffffffffffff8211156105b3576105b261051d565b5b6105bc82610451565b9050602081019050919050565b82818337600083830152505050565b60006105eb6105e684610598565b61057d565b90508281526020810184848401111561060757610606610518565b5b6106128482856105c9565b509392505050565b600082601f83011261062f5761062e610513565b5b813561063f8482602086016105d8565b91505092915050565b60008060006060848603121561066157610660610395565b5b600061066f868287016104fe565b935050602084013567ffffffffffffffff8111156106905761068f61039a565b5b61069c8682870161061a565b92505060406106ad868287016104fe565b9150509250925092565b600080604083850312156106ce576106cd610395565b5b60006106dc858286016104fe565b925050602083013567ffffffffffffffff8111156106fd576106fc61039a565b5b6107098582860161061a565b9150509250929050565b60006020828403121561072957610728610395565b5b6000610737848285016104fe565b91505092915050565b6000602082019050818103600083015261075a8184610462565b905092915050565b7f4e487b7100000000000000000000000000000000000000000000000000000000600052602260045260246000fd5b600060028204905060018216806107a957607f821691505b6020821081036107bc576107bb610762565b5b5091905056fea26469706673582212207ac72cf75a3d10035076aea562396c78a862ae539d5d8290ed9e35ecca3d9d0664736f6c634300080e0033",
  "immutableReferences": {},
  "source": "// SPDX-License-Identifier: MIT\npragma solidity >=0.4.22 <0.9.0;\n\ncontract mappingDemo {\n    mapping(uint8 => string) public student;\n    struct studentDetails {\n        string name;\n        uint8 age;\n    }\n    mapping(uint256 => studentDetails) public studentDetail;\n\n    function input(uint8 _rollNo, string memory _name) public {\n        student[_rollNo] = _name;\n    }\n\n    function inputStruct(\n        uint8 _rollNo,\n        string memory _name,\n        uint8 _age\n    ) public {\n        studentDetail[_rollNo] = studentDetails(_name, _age);\n    }\n}\n",
  "sourcePath": "/media/hardik/Stuff/PlayGround/Solidity_PlayGround/contracts/mappingDemo.sol",
  "compiler": {
    "name": "solc",
    "version": "0.8.14+commit.80d49f37.Emscripten.clang"
  },
  "schemaVersion": "3.4.7",
  "updatedAt": "2022-06-02T03:56:51.550Z",
  "devdoc": {
    "kind": "dev",
    "methods": {},
    "version": 1
  },
  "userdoc": {
    "kind": "user",
    "methods": {},
    "version": 1
  }
}