{
  "contractName": "mappingDemo",
  "abi": [
    {
      "inputs": [
        {
          "internalType": "uint8",
          "name": "",
          "type": "uint8"
        }
      ],
      "name": "student",
      "outputs": [
        {
          "internalType": "string",
          "name": "",
          "type": "string"
        }
      ],
      "stateMutability": "view",
      "type": "function"
    },
    {
      "inputs": [
        {
          "internalType": "uint8",
          "name": "_rollNo",
          "type": "uint8"
        },
        {
          "internalType": "string",
          "name": "_name",
          "type": "string"
        }
      ],
      "name": "input",
      "outputs": [],
      "stateMutability": "nonpayable",
      "type": "function"
    }
  ],
  "bytecode": "0x608060405234801561001057600080fd5b50610557806100206000396000f3fe608060405234801561001057600080fd5b50600436106100365760003560e01c8063ea840f171461003b578063f84ea16c14610057575b600080fd5b6100556004803603810190610050919061038e565b610087565b005b610071600480360381019061006c91906103ea565b6100b8565b60405161007e919061049f565b60405180910390f35b806000808460ff1660ff16815260200190815260200160002090805190602001906100b3929190610158565b505050565b600060205280600052604060002060009150905080546100d7906104f0565b80601f0160208091040260200160405190810160405280929190818152602001828054610103906104f0565b80156101505780601f1061012557610100808354040283529160200191610150565b820191906000526020600020905b81548152906001019060200180831161013357829003601f168201915b505050505081565b828054610164906104f0565b90600052602060002090601f01602090048101928261018657600085556101cd565b82601f1061019f57805160ff19168380011785556101cd565b828001600101855582156101cd579182015b828111156101cc5782518255916020019190600101906101b1565b5b5090506101da91906101de565b5090565b5b808211156101f75760008160009055506001016101df565b5090565b6000604051905090565b600080fd5b600080fd5b600060ff82169050919050565b6102258161020f565b811461023057600080fd5b50565b6000813590506102428161021c565b92915050565b600080fd5b600080fd5b6000601f19601f8301169050919050565b7f4e487b7100000000000000000000000000000000000000000000000000000000600052604160045260246000fd5b61029b82610252565b810181811067ffffffffffffffff821117156102ba576102b9610263565b5b80604052505050565b60006102cd6101fb565b90506102d98282610292565b919050565b600067ffffffffffffffff8211156102f9576102f8610263565b5b61030282610252565b9050602081019050919050565b82818337600083830152505050565b600061033161032c846102de565b6102c3565b90508281526020810184848401111561034d5761034c61024d565b5b61035884828561030f565b509392505050565b600082601f83011261037557610374610248565b5b813561038584826020860161031e565b91505092915050565b600080604083850312156103a5576103a4610205565b5b60006103b385828601610233565b925050602083013567ffffffffffffffff8111156103d4576103d361020a565b5b6103e085828601610360565b9150509250929050565b600060208284031215610400576103ff610205565b5b600061040e84828501610233565b91505092915050565b600081519050919050565b600082825260208201905092915050565b60005b83811015610451578082015181840152602081019050610436565b83811115610460576000848401525b50505050565b600061047182610417565b61047b8185610422565b935061048b818560208601610433565b61049481610252565b840191505092915050565b600060208201905081810360008301526104b98184610466565b905092915050565b7f4e487b7100000000000000000000000000000000000000000000000000000000600052602260045260246000fd5b6000600282049050600182168061050857607f821691505b60208210810361051b5761051a6104c1565b5b5091905056fea264697066735822122054cc4c3686a8831e66b4a40ee8e3d3571ddbd143a5ab4cd49b0373eebcbd356264736f6c634300080e0033",
  "immutableReferences": {},
  "source": "// SPDX-License-Identifier: MIT\npragma solidity >=0.4.22 <0.9.0;\n\ncontract mappingDemo {\n    mapping(uint8 => string) public student;\n\n    function input(uint8 _rollNo, string memory _name) public {\n        student[_rollNo] = _name;\n    }\n}\n",
  "sourcePath": "/media/hardik/Stuff/PlayGround/Solidity_PlayGround/contracts/mappingDemo.sol",
  "compiler": {
    "name": "solc",
    "version": "0.8.14+commit.80d49f37.Emscripten.clang"
  },
  "schemaVersion": "3.4.7",
  "updatedAt": "2022-06-02T03:49:25.642Z",
  "devdoc": {
    "kind": "dev",
    "methods": {},
    "version": 1
  },
  "userdoc": {
    "kind": "user",
    "methods": {},
    "version": 1
  }
}