{
  "contractName": "structure",
  "abi": [
    {
      "inputs": [
        {
          "internalType": "uint8",
          "name": "_rollNo",
          "type": "uint8"
        },
        {
          "internalType": "string",
          "name": "_name",
          "type": "string"
        }
      ],
      "stateMutability": "nonpayable",
      "type": "constructor"
    },
    {
      "inputs": [],
      "name": "stud",
      "outputs": [
        {
          "internalType": "uint8",
          "name": "rollNo",
          "type": "uint8"
        },
        {
          "internalType": "string",
          "name": "name",
          "type": "string"
        }
      ],
      "stateMutability": "view",
      "type": "function"
    },
    {
      "inputs": [
        {
          "internalType": "uint8",
          "name": "_rollNo",
          "type": "uint8"
        },
        {
          "internalType": "string",
          "name": "_name",
          "type": "string"
        }
      ],
      "name": "change",
      "outputs": [],
      "stateMutability": "nonpayable",
      "type": "function"
    }
  ],
  "bytecode": "0x60806040523480156200001157600080fd5b506040516200094d3803806200094d833981810160405281019062000037919062000303565b816000800160006101000a81548160ff021916908360ff16021790555080600060010190805190602001906200006f92919062000078565b505050620003cd565b828054620000869062000398565b90600052602060002090601f016020900481019282620000aa5760008555620000f6565b82601f10620000c557805160ff1916838001178555620000f6565b82800160010185558215620000f6579182015b82811115620000f5578251825591602001919060010190620000d8565b5b50905062000105919062000109565b5090565b5b80821115620001245760008160009055506001016200010a565b5090565b6000604051905090565b600080fd5b600080fd5b600060ff82169050919050565b62000154816200013c565b81146200016057600080fd5b50565b600081519050620001748162000149565b92915050565b600080fd5b600080fd5b6000601f19601f8301169050919050565b7f4e487b7100000000000000000000000000000000000000000000000000000000600052604160045260246000fd5b620001cf8262000184565b810181811067ffffffffffffffff82111715620001f157620001f062000195565b5b80604052505050565b60006200020662000128565b9050620002148282620001c4565b919050565b600067ffffffffffffffff82111562000237576200023662000195565b5b620002428262000184565b9050602081019050919050565b60005b838110156200026f57808201518184015260208101905062000252565b838111156200027f576000848401525b50505050565b60006200029c620002968462000219565b620001fa565b905082815260208101848484011115620002bb57620002ba6200017f565b5b620002c88482856200024f565b509392505050565b600082601f830112620002e857620002e76200017a565b5b8151620002fa84826020860162000285565b91505092915050565b600080604083850312156200031d576200031c62000132565b5b60006200032d8582860162000163565b925050602083015167ffffffffffffffff81111562000351576200035062000137565b5b6200035f85828601620002d0565b9150509250929050565b7f4e487b7100000000000000000000000000000000000000000000000000000000600052602260045260246000fd5b60006002820490506001821680620003b157607f821691505b602082108103620003c757620003c662000369565b5b50919050565b61057080620003dd6000396000f3fe608060405234801561001057600080fd5b50600436106100365760003560e01c8063386358d41461003b578063aafa62a61461005a575b600080fd5b610043610076565b6040516100519291906102d9565b60405180910390f35b610074600480360381019061006f919061047e565b61011d565b005b60008060000160009054906101000a900460ff169080600101805461009a90610509565b80601f01602080910402602001604051908101604052809291908181526020018280546100c690610509565b80156101135780601f106100e857610100808354040283529160200191610113565b820191906000526020600020905b8154815290600101906020018083116100f657829003601f168201915b5050505050905082565b600060405180604001604052808460ff168152602001838152509050806000808201518160000160006101000a81548160ff021916908360ff1602179055506020820151816001019080519060200190610178929190610181565b50905050505050565b82805461018d90610509565b90600052602060002090601f0160209004810192826101af57600085556101f6565b82601f106101c857805160ff19168380011785556101f6565b828001600101855582156101f6579182015b828111156101f55782518255916020019190600101906101da565b5b5090506102039190610207565b5090565b5b80821115610220576000816000905550600101610208565b5090565b600060ff82169050919050565b61023a81610224565b82525050565b600081519050919050565b600082825260208201905092915050565b60005b8381101561027a57808201518184015260208101905061025f565b83811115610289576000848401525b50505050565b6000601f19601f8301169050919050565b60006102ab82610240565b6102b5818561024b565b93506102c581856020860161025c565b6102ce8161028f565b840191505092915050565b60006040820190506102ee6000830185610231565b818103602083015261030081846102a0565b90509392505050565b6000604051905090565b600080fd5b600080fd5b61032681610224565b811461033157600080fd5b50565b6000813590506103438161031d565b92915050565b600080fd5b600080fd5b7f4e487b7100000000000000000000000000000000000000000000000000000000600052604160045260246000fd5b61038b8261028f565b810181811067ffffffffffffffff821117156103aa576103a9610353565b5b80604052505050565b60006103bd610309565b90506103c98282610382565b919050565b600067ffffffffffffffff8211156103e9576103e8610353565b5b6103f28261028f565b9050602081019050919050565b82818337600083830152505050565b600061042161041c846103ce565b6103b3565b90508281526020810184848401111561043d5761043c61034e565b5b6104488482856103ff565b509392505050565b600082601f83011261046557610464610349565b5b813561047584826020860161040e565b91505092915050565b6000806040838503121561049557610494610313565b5b60006104a385828601610334565b925050602083013567ffffffffffffffff8111156104c4576104c3610318565b5b6104d085828601610450565b9150509250929050565b7f4e487b7100000000000000000000000000000000000000000000000000000000600052602260045260246000fd5b6000600282049050600182168061052157607f821691505b602082108103610534576105336104da565b5b5091905056fea2646970667358221220f8a1bb456c16065cb164d4116c54c36fac3c27833a54e53cd0ff3e891004c96d64736f6c634300080e0033",
  "immutableReferences": {},
  "source": "// SPDX-License-Identifier: MIT\npragma solidity >=0.4.22 <0.9.0;\n\nstruct student {\n    uint8 rollNo;\n    string name;\n}\n\ncontract structure {\n    student public stud;\n\n    constructor(uint8 _rollNo, string memory _name) {\n        stud.rollNo = _rollNo;\n        stud.name = _name;\n    }\n\n    function change(uint8 _rollNo, string memory _name) public {\n        student memory new_stud = student({rollNo: _rollNo, name: _name});\n        stud = new_stud;\n    }\n}\n",
  "sourcePath": "/media/hardik/Stuff/PlayGround/Solidity_PlayGround/contracts/structure.sol",
  "compiler": {
    "name": "solc",
    "version": "0.8.14+commit.80d49f37.Emscripten.clang"
  },
  "schemaVersion": "3.4.7",
  "updatedAt": "2022-06-02T03:22:02.584Z",
  "devdoc": {
    "kind": "dev",
    "methods": {},
    "version": 1
  },
  "userdoc": {
    "kind": "user",
    "methods": {},
    "version": 1
  }
}